:020000040800F2
:1000000000C00020813900084D3200082D32000860
:100010003D3200085D3200086D320008000000002B
:10002000000000000000000000000000D1390008BE
:10003000D139000800000000D1390008D13900088A
:10004000D1390008D1390008D1390008D139000868
:10005000D1390008D1390008D1390008D139000858
:10006000D1390008D1390008D1390008D139000848
:10007000D1390008D1390008D1390008D139000838
:10008000D1390008D1390008D1390008D139000828
:10009000D1390008D1390008D1390008D139000818
:1000A000D1390008D1390008D1390008D139000808
:1000B000F1320008D1390008D1390008D1390008DF
:1000C000D1390008D1390008D1390008D1390008E8
:1000D000D13900087D380008D1390008D13900082D
:1000E000D1390008D1390008D1390008D1390008C8
:1000F000D1390008D1390008D1390008D1390008B8
:10010000D1390008D1390008D1390008D1390008A7
:10011000D1390008D1390008D1390008D139000897
:10012000D1390008D1390008D1390008D139000887
:1001300000000000000000000000000000000000BF
:1001400000000000000000000000000000000000AF
:10015000000000000000000000000000000000009F
:10016000000000000000000000000000000000008F
:10017000000000000000000000000000000000007F
:10018000000000000000000000000000000000006F
:10019000000000000000000000000000000000005F
:1001A000000000000000000000000000000000004F
:1001B000000000000000000000000000000000003F
:1001C000000000000000000000000000000000002F
:1001D000000000000000000000000000000000001F
:0401E0005FF8E0F1F3
:1001E80010B5054C237833B9044B13B10448AFF369
:1001F80000800123237010BDD806002000000000F5
:100208001477000808B5034B1BB103490348AFF343
:10021800008008BD00000000DC06002014770008FC
:10022800034613F8012B002AFBD1181A013870472E
:1002380081F0004102E000BF83F0004330B54FEA8F
:1002480041044FEA430594EA050F08BF90EA020FFC
:100258001FBF54EA000C55EA020C7FEA645C7FEA8F
:10026800655C00F0E2804FEA5454D4EB5555B8BFB2
:100278006D420CDD2C4480EA020281EA030382EA23
:10028800000083EA010180EA020281EA0303362DB5
:1002980088BF30BD11F0004F4FEA01314FF4801C88
:1002A8004CEA113102D0404261EB410113F0004F9A
:1002B8004FEA03334CEA133302D0524263EB430351
:1002C80094EA050F00F0A780A4F10104D5F1200EEF
:1002D8000DDB02FA0EFC22FA05F2801841F100014A
:1002E80003FA0EF2801843FA05F359410EE0A5F11E
:1002F80020050EF1200E012A03FA0EFC28BF4CF04F
:10030800020C43FA05F3C01851EBE37101F0004504
:1003180007D54FF0000EDCF1000C7EEB00006EEB11
:100328000101B1F5801F1BD3B1F5001F0CD349089B
:100338005FEA30004FEA3C0C04F101044FEA4452F2
:1003480012F5800F80F09A80BCF1004F08BF5FEA79
:10035800500C50F1000041EB045141EA050130BD59
:100368005FEA4C0C404141EB010111F4801FA4F1FC
:100378000104E9D191F0000F04BF01460020B1FA51
:1003880081F308BF2033A3F10B03B3F120020CDA89
:100398000C3208DD02F1140CC2F10C0201FA0CF067
:1003A80021FA02F10CE002F11402D8BFC2F1200CCC
:1003B80001FA02F120FA0CFCDCBF41EA0C01904082
:1003C800E41AA2BF01EB0451294330BD6FEA0404CB
:1003D8001F3C1CDA0C340EDC04F11404C4F12002B6
:1003E80020FA04F001FA02F340EA030021FA04F3C8
:1003F80045EA030130BDC4F10C04C4F1200220FA1F
:1004080002F001FA04F340EA0300294630BD21FA5C
:1004180004F0294630BD94F0000F83F4801306BF22
:1004280081F480110134013D4EE77FEA645C18BF16
:100438007FEA655C29D094EA050F08BF90EA020FAD
:1004480005D054EA000C04BF1946104630BD91EAA5
:10045800030F1EBF0021002030BD5FEA545C05D1A8
:100468004000494128BF41F0004130BD14F58004E7
:100478003CBF01F5801130BD01F0004545F0FE415B
:1004880041F470014FF0000030BD7FEA645C1ABF90
:10049800194610467FEA655C1CBF0B46024650EAC7
:1004A800013406BF52EA033591EA030F41F40021F3
:1004B80030BD00BF90F0000F04BF0021704730B579
:1004C8004FF4806404F132044FF000054FF000014E
:1004D80050E700BF90F0000F04BF0021704730B50F
:1004E8004FF4806404F1320410F0004548BF4042E4
:1004F8004FF000013EE700BF42004FEAE2014FEA39
:1005080031014FEA02701FBF12F07F4393F07F4F13
:1005180081F06051704792F0000F14BF93F07F4F45
:10052800704730B54FF4607401F0004521F0004188
:1005380020E700BF50EA010208BF704730B54FF00E
:1005480000050AE050EA010208BF704730B511F013
:10055800004502D5404261EB41014FF4806404F14B
:1005680032045FEA915C3FF4DCAE4FF003025FEACD
:10057800DC0C18BF03325FEADC0C18BF033202EB55
:10058800DC02C2F1200300FA03FC20FA02F001FAAF
:1005980003FE40EA0E0021FA02F11444C1E600BF4E
:1005A80070B54FF0FF0C4CF4E06C1CEA11541DBF01
:1005B8001CEA135594EA0C0F95EA0C0F00F0DEF8CC
:1005C8002C4481EA030621EA4C5123EA4C5350EAB1
:1005D800013518BF52EA033541F4801143F4801302
:1005E80038D0A0FB02CE4FF00005E1FB02E506F093
:1005F8000042E0FB03E54FF00006E1FB03569CF0E8
:10060800000F18BF4EF0010EA4F1FF04B6F5007FED
:1006180064F5407404D25FEA4E0E6D4146EB06065F
:1006280042EAC62141EA55514FEAC52040EA5E50E8
:100638004FEACE2EB4F1FD0C88BFBCF5E06F1ED892
:10064800BEF1004F08BF5FEA500E50F1000041EBC9
:10065800045170BD06F0004646EA010140EA020076
:1006680081EA0301B4EB5C04C2BFD4EB0C0541EA98
:10067800045170BD41F480114FF0000E013C00F3AD
:10068800AB8014F1360FDEBF002001F0004170BDD1
:10069800C4F10004203C35DA0C341BDC04F11404EA
:1006A800C4F1200500FA05F320FA04F001FA05F276
:1006B80040EA020001F0004221F0004110EBD37043
:1006C80021FA04F642EB06015EEA430E08BF20EA6F
:1006D800D37070BDC4F10C04C4F1200500FA04F312
:1006E80020FA05F001FA04F240EA020001F00041A4
:1006F80010EBD37041F100015EEA430E08BF20EA17
:10070800D37070BDC4F1200500FA05F24EEA020E5E
:1007180020FA04F301FA05F243EA020321FA04F08D
:1007280001F0004121FA04F220EA020000EBD37044
:100738005EEA430E08BF20EAD37070BD94F0000F44
:100748000FD101F00046400041EB010111F4801F78
:1007580008BF013CF7D041EA060195F0000F18BF29
:10076800704703F00046520043EB030313F4801F65
:1007780008BF013DF7D043EA0603704794EA0C0F1F
:100788000CEA135518BF95EA0C0F0CD050EA410635
:1007980018BF52EA4306D1D181EA030101F00041B2
:1007A8004FF0000070BD50EA410606BF10461946DA
:1007B80052EA430619D094EA0C0F02D150EA0136E6
:1007C80013D195EA0C0F05D152EA03361CBF104627
:1007D80019460AD181EA030101F0004141F0FE41C6
:1007E80041F470014FF0000070BD41F0FE4141F44A
:1007F800780170BD70B54FF0FF0C4CF4E06C1CEA4A
:1008080011541DBF1CEA135594EA0C0F95EA0C0FFE
:1008180000F0A7F8A4EB050481EA030E52EA0335B9
:100828004FEA013100F088804FEA03334FF08055DA
:1008380045EA131343EA12634FEA022245EA111507
:1008480045EA10654FEA00260EF000419D4208BFB8
:10085800964244F1FD0404F5407402D25B084FEA65
:100868003202B61A65EB03055B084FEA32024FF411
:1008780080104FF4002CB6EB020E75EB030E22BF6E
:10088800B61A754640EA0C005B084FEA3202B6EB2E
:10089800020E75EB030E22BFB61A754640EA5C00DD
:1008A8005B084FEA3202B6EB020E75EB030E22BF6D
:1008B800B61A754640EA9C005B084FEA3202B6EB6E
:1008C800020E75EB030E22BFB61A754640EADC002D
:1008D80055EA060E18D04FEA051545EA16754FEA8F
:1008E80006164FEAC30343EA52734FEAC2025FEAAD
:1008F8001C1CC0D111F4801F0BD141EA00014FF03C
:1009080000004FF0004CB6E711F4801F04BF01430C
:100918000020B4F1FD0C88BFBCF5E06F3FF6AFAE28
:10092800B5EB030C04BFB6EB020C5FEA500C50F1B8
:10093800000041EB045170BD0EF0004E4EEA11313B
:1009480014EB5C04C2BFD4EB0C0541EA045170BD42
:1009580041F480114FF0000E013C90E645EA060E86
:100968008DE60CEA135594EA0C0F08BF95EA0C0FB4
:100978003FF43BAF94EA0C0F0AD150EA01347FF4FC
:1009880034AF95EA0C0F7FF425AF104619462CE7D3
:1009980095EA0C0F06D152EA03353FF4FDAE104636
:1009A800194622E750EA410618BF52EA43067FF487
:1009B800C5AE50EA41047FF40DAF52EA43057FF417
:1009C800EBAE12E74FF0FF3C06E000BF4FF0010C22
:1009D80002E000BF4FF0010C4DF804CD4FEA410C86
:1009E8007FEA6C5C4FEA430C18BF7FEA6C5C1BD053
:1009F80001B050EA410C0CBF52EA430C91EA030FD4
:100A080002BF90EA020F0020704710F1000F91EA30
:100A1800030F58BF994208BF90422CBFD8176FEAFE
:100A2800E37040F0010070474FEA410C7FEA6C5CCC
:100A380002D150EA013C07D14FEA430C7FEA6C5CD3
:100A4800D6D152EA033CD3D05DF8040B704700BFFF
:100A58008446104662468C461946634600E000BF4D
:100A680001B5FFF7B7FF002848BF10F1000F01BD1F
:100A78004DF808EDFFF7F4FF0CBF012000205DF8EA
:100A880008FB00BF4DF808EDFFF7EAFF34BF01206F
:100A980000205DF808FB00BF4DF808EDFFF7E0FF08
:100AA80094BF012000205DF808FB00BF4DF808ED59
:100AB800FFF7CEFF94BF012000205DF808FB00BFC0
:100AC8004DF808EDFFF7C4FF34BF012000205DF8A2
:100AD80008FB00BF4FEA410C7FEA6C5C02D150EA88
:100AE800013C0AD14FEA430C7FEA6C5C02D152EA1E
:100AF800033C02D14FF0000070474FF001007047EF
:100B08004FEA410212F5001215D211D56FF478732D
:100B1800B3EB625212D94FEAC12343F0004343EAD0
:100B2800505311F0004F23FA02F018BF40427047AB
:100B38004FF00000704750EA013005D111F0004035
:100B480008BF6FF0004070474FF00000704700BFCB
:100B580053B94AB9002908BF00281CBF4FF0FF311C
:100B68004FF0FF3000F07AB9ADF1080C6DE904CE12
:100B780000F006F8DDF804E0DDE9022304B0704770
:100B88002DE9F0478C460E460446089D002B50D1AF
:100B98008A4217466CD9B2FA82FEBEF1000F0BD01A
:100BA800CEF1200C01FA0EF620FA0CFC02FA0EF730
:100BB8004CEA060C00FA0EF43A0CBCFBF2F9BBB294
:100BC80002FB19CC09FB03FA4FEA144848EA0C4621
:100BD800B2450AD9F61909F1FF3180F02581B245ED
:100BE80040F22281A9F102093E44A6EB0A06B6FBAF
:100BF800F2F002FB106600FB03F3A4B244EA0644D9
:100C0800A34209D9E41900F1FF3280F00B81A34215
:100C180040F2088102383C440021E41A40EA0940C5
:100C2800002D62D0002324FA0EF42C606B60BDE81E
:100C3800F0878B4207D9002D55D0002185E8410067
:100C48000846BDE8F087B3FA83F1002940F08F80A9
:100C5800B34202D3824200F2FC80841A66EB030698
:100C68000120B446002D40D085E81010BDE8F0877B
:100C780012B90127B7FBF2F7B7FA87FEBEF1000FEA
:100C880035D10121F61B4FEA174C1FFA87F8B6FB3E
:100C9800FCF20CFB126608FB02F0230C43EA064642
:100CA800B04207D9F61902F1FF3302D2B04200F27E
:100CB800D2801A46361AB6FBFCF00CFB106608FB0D
:100CC80000F8A3B243EA0644A04507D9E41900F1A5
:100CD800FF3302D2A04500F2B9801846A4EB0804FD
:100CE80040EA02409CE729462846BDE8F08707FA13
:100CF8000EF7CEF1200326FA03F24FEA174CB2FBA7
:100D0800FCF11FFA87F80CFB112206FA0EF620FAFE
:100D180003F301FB08F933431E0C46EA0246B145CA
:100D280000FA0EF409D9F61901F1FF3280F08C802F
:100D3800B14540F2898002393E44A6EB0906B6FB6C
:100D4800FCF00CFB106200FB08F99EB246EA024672
:100D5800B14507D9F61900F1FF3371D2B1456FD902
:100D680002383E44A6EB090640EA01418FE7C1F18B
:100D7800200722FA07F88B4048EA030326FA07F40B
:100D88004FEA134EB4FBFEF91FFA83FC0EFB19441D
:100D98008E4020FA07F809FB0CFA48EA06084FEAE1
:100DA800184646EA0444A24502FA01F200FA01F69E
:100DB80008D9E41809F1FF3044D2A24542D9A9F173
:100DC80002091C44A4EB0A04B4FBFEF00EFB104419
:100DD80000FB0CFC1FFA88F848EA0444A44507D92C
:100DE800E41800F1FF3E29D2A44527D902381C4453
:100DF80040EA0940A0FB0289A4EB0C0CCC45C24692
:100E0800CE4615D312D055B1B6EB0A036CEB0E06DD
:100E180006FA07F7CB401F43CE402F606E600021D3
:100E2800BDE8F0871046F7E68946DEE64645EAD291
:100E3800B8EB020A69EB030E0138E4E77046D7E71E
:100E480018468FE78146BDE7114676E702383C44ED
:100E580044E7084606E7023A3E442BE7704700BFDE
:100E680080B487B000AF786000237B6100233B61CA
:100E78000F23FB607B68DB78002B3AD0274BDB68BD
:100E8800DB431B0A03F007037B617B69C3F104039F
:100E98003B61FA687B6922FA03F3FB607B685B7845
:100EA8001A463B6902FA03F37B617B689B781A4612
:100EB800FB6813407A6913437B617B691B017B6183
:100EC800174A7B681B787969C9B213440A4683F8C4
:100ED8000023134A7B681B785B09DBB218467B68E2
:100EE8001B7803F01F03012101FA03F342F82030B5
:100EF8000FE00B497B681B785B09DBB218467B68FF
:100F08001B7803F01F0301229A4000F1200341F8E7
:100F1800232000BF1C37BD4680BC704700ED00E0B1
:100F280000E100E080B489B000AF78603960002348
:100F3800FB6100233B610023BB610023FB600023AE
:100F48007B610023BB603B68DB7803F00F03FB6128
:100F58003B68DB7803F01003002B05D03B689B78D7
:100F68001A46FB691343FB613B681B88DBB2002B05
:100F780044D07B681B687B610023BB6138E0012299
:100F8800BB6902FA03F3FB603B681B881A46FB68DF
:100F980013403B613A69FB689A4226D1BB699B00C2
:100FA800FB600F22FB6802FA03F3BB60BB68DB43FC
:100FB8007A6913407B61FA69FB6802FA03F37A697C
:100FC80013437B613B68DB78282B05D10122BB6981
:100FD8009A407B685A6108E03B68DB78482B04D16B
:100FE8000122BB699A407B681A61BB690133BB6106
:100FF800BB69072BC3D97B687A691A603B681B8871
:10100800FF2B46D97B685B687B610023BB613AE0B4
:10101800BB690833012202FA03F3FB603B681B88B3
:101028001A46FB6813403B613A69FB689A4227D12C
:10103800BB699B00FB600F22FB6802FA03F3BB60ED
:10104800BB68DB437A6913407B61FA69FB6802FA83
:1010580003F37A6913437B613B68DB78282B05D15E
:10106800BB69083301229A407B685A613B68DB7888
:10107800482B05D1BB69083301229A407B681A6165
:10108800BB690133BB61BB69072BC1D97B687A692E
:101098005A6000BF2437BD4680BC704780B483B017
:1010A80000AF78600B467B807A887B681A6100BF46
:1010B8000C37BD4680BC704780B483B000AF786001
:1010C8000B467B807A887B685A6100BF0C37BD4627
:1010D80080BC704780B487B000AF786000237B6124
:1010E80000233B610023FB600023BB604C4B5B6823
:1010F80003F00C037B617B69042B07D0082B09D014
:10110800002B33D17B68474A1A6033E07B68464A34
:101118001A602FE0424B5B6803F470133B61404B4D
:101128005B6803F48033FB603B699B0C02333B61D3
:10113800FB68002B06D13B693C4A02FB03F27B6843
:101148001A6017E0364B5B6803F40033002B06D0B7
:101158003B69374A02FB03F27B681A600AE03B6985
:10116800314A02FB03F27B681A6003E07B682D4A70
:101178001A6000BF2A4B5B6803F0F0037B617B6950
:101188001B097B612B4A7B6913441B78DBB2BB606C
:101198007B681A68BB68DA407B685A60204B5B68DA
:1011A80003F4E0637B617B691B0A7B61214A7B69ED
:1011B80013441B78DBB2BB607B685A68BB68DA40B3
:1011C8007B689A60164B5B6803F460537B617B69AC
:1011D800DB0A7B61174A7B6913441B78DBB2BB606F
:1011E8007B685A68BB68DA407B68DA600C4B5B68DE
:1011F80003F440437B617B699B0B7B610E4A7B69EF
:1012080013441B78DBB2BB607B68DA68BB68B2FB4F
:10121800F3F27B681A6100BF1C37BD4680BC70477B
:101228000010024000127A00001BB70000093D00C0
:10123800808D5B00000000201000002080B483B087
:1012480000AF78600B46FB70FB78002B06D009498D
:10125800084B9A697B6813438B6106E00549054B87
:101268009A697B68DB4313408B6100BF0C37BD462E
:1012780080BC70470010024080B483B000AF786033
:101288000B46FB70FB78002B06D00949084BDA693E
:101298007B681343CB6106E00549054BDA697B6837
:1012A800DB431340CB6100BF0C37BD4680BC7047A1
:1012B8000010024080B485B000AF78603960002328
:1012C800FB817B681B88FB81FB8903F44153FB810D
:1012D8003B681A883B685B8813439AB23B689B88D3
:1012E80013439AB23B68DB8813439AB23B681B8965
:1012F80013439AB23B685B8913439AB23B689B8954
:1013080013439AB23B68DB8913439AB2FB891343B0
:10131800FB817B68FA891A807B689B8B9BB223F4DC
:1013280000639AB27B689A833B681A8A7B681A8240
:1013380000BF1437BD4680BC704780B483B000AF8F
:1013480078600B46FB70FB78002B08D07B681B8805
:101358009BB243F040039AB27B681A8007E07B682F
:101368001B889BB223F040039AB27B681A8000BFA7
:101378000C37BD4680BC704780B483B000AF78603E
:101388000B467B807B687A889A8100BF0C37BD4604
:1013980080BC704780B483B000AF78607B689B895D
:1013A8009BB218460C37BD4680BC704780B485B0E8
:1013B80000AF78600B467B800023FB737B681B893A
:1013C8009AB27B8813409BB2002B02D00123FB7397
:1013D80001E00023FB73FB7B18461437BD4680BC35
:1013E8007047000080B485B000AF78603960002392
:1013F800FB817B681B88FB817B682E4A934213D054
:101408007B682D4A93420FD07B68B3F1804F0BD095
:101418007B682A4A934207D07B68294A934203D0C3
:101428007B68284A934208D1FB8923F07003FB812B
:101438003B685A88FB891343FB817B68224A9342A5
:101448000CD07B68214A934208D0FB8923F440736F
:10145800FB813B68DA88FB891343FB817B68FA8947
:101468001A803B689A887B689A853B681A887B68EB
:101478001A857B680F4A93420FD07B680E4A9342C5
:101488000BD07B68124A934207D07B68114A93427B
:1014980003D07B68104A934204D13B681B7A9AB206
:1014A8007B681A867B6801229A8200BF1437BD4682
:1014B80080BC7047002C014000340140000400400B
:1014C80000080040000C00400010004000140040DC
:1014D80000400140004401400048014080B483B00E
:1014E80000AF78600B46FB70FB78002B08D07B6858
:1014F8001B889BB243F001039AB27B681A8007E00D
:101508007B681B889BB223F001039AB27B681A8020
:1015180000BF0C37BD4680BC704780B483B000AFB5
:1015280078600B467B8013467B707B78002B08D055
:101538007B689B899AB27B8813439AB27B689A81AD
:1015480009E07B689B899AB27B88DB439BB2134096
:101558009AB27B689A8100BF0C37BD4680BC704741
:1015680080B483B000AF78600B467B807B687A8854
:101578009A8500BF0C37BD4680BC704780B483B0E5
:1015880000AF78600B467B807B88DB439AB27B6830
:101598001A8200BF0C37BD4680BC704780B58CB03E
:1015A80000AF786039600023FB620023BB62002330
:1015B8007B6200233B620023FB617B68FB617B68E5
:1015C8001B8A9BB2FB62FA6A4CF6FF731340FB62FC
:1015D8003B68DB881A46FB6A1343FB62FB6A9AB2D4
:1015E8007B681A827B689B899BB2FB62FA6A4EF61B
:1015F800F3131340FB623B689A883B681B891343CB
:101608009AB23B685B8913439BB21A46FB6A134341
:10161800FB62FB6A9AB27B689A817B689B8A9BB261
:10162800FB62FA6A4FF6FF431340FB623B689B89F3
:101638001A46FB6A1343FB62FB6A9AB27B689A827A
:1016480007F108031846FFF745FDFB692E4A934248
:1016580002D17B69BB6201E03B69BB627B689B8905
:101668009BB21BB2002B0CDABA6A13469B001344D8
:101678009A001A443B681B685B00B2FBF3F37B6279
:101688000BE0BA6A13469B0013449A001A443B685D
:101698001B689B00B2FBF3F37B627B6A1B4AA2FBCD
:1016A80003235B091B01FB62FB6A1B09642202FB23
:1016B80003F37A6AD31A3B627B689B899BB21BB29D
:1016C800002B0CDA3B6ADB003233104AA2FB0323FF
:1016D8005B0903F00703FA6A1343FB620BE03B6AFA
:1016E8001B013233094AA2FB03235B0903F00F03F2
:1016F800FA6A1343FB62FB6A9AB27B681A8100BFDD
:101708003037BD4680BD00BF003801401F85EB5112
:1017180080B483B000AF78600B46FB70FB78002B79
:1017280008D07B689B899BB243F400539AB27B68CC
:101738009A8107E07B689B899BB223F400539AB295
:101748007B689A8100BF0C37BD4680BC704780B467
:1017580087B000AF78600B467B8013467B70002310
:101768003B610023FB600023BB6000237B617B6837
:101778007B617B88DBB25B09DBB23B617B8803F072
:101788001F03FB600122FB6802FA03F3BB603B699D
:10179800012B03D17B690C337B6109E03B69022B88
:1017A80003D17B6910337B6102E07B6914337B6171
:1017B8007B78002B06D07B697A691168BA680A437E
:1017C8001A6006E07B697A691168BA68D2430A40F0
:1017D8001A6000BF1C37BD4680BC704780B483B018
:1017E80000AF78600B467B807B88C3F308039AB20E
:1017F8007B689A8000BF0C37BD4680BC704780B4B8
:1018080083B000AF78607B689B889BB2C3F3080302
:101818009BB218460C37BD4680BC704780B485B073
:1018280000AF78600B467B800023FB737B681B88C6
:101838009AB27B8813409BB2002B02D00123FB7322
:1018480001E00023FB73FB7B18461437BD4680BCC0
:10185800704780B483B000AF78600B467B807B888C
:10186800DB439AB27B681A8000BF0C37BD4680BC48
:1018780070470000B0B58AB004AF03463960FB7109
:101888001346BB800023FB820023BB82FB79043311
:101898001B020333184600F081F903461C2B00F2A3
:1018A800F48001A252F823F0771A0008931A00086E
:1018B800931A0008931A0008931A0008931A00084C
:1018C800931A0008931A0008931A0008931A00083C
:1018D800931A0008931A0008931A0008931A00082C
:1018E800931A0008931A0008931A0008931A00081C
:1018F800931A0008551A0008931A0008931A00084A
:10190800931A000825190008931A0008931A00086A
:10191800931A0008931A0008331A0008FB79043355
:101928001B020233184600F039F9034603F001039D
:10193800002B3AD0FB7904331B020C33184607F10D
:1019480008030422194600F09FF9FB7904331B02AF
:101958001033184600F022F903469BB21B029CB2D2
:10196800FB7904331B021133184600F017F90346BC
:101978009BB223447B82F9793B7A1C467B7A1D46CD
:10198800BB7A1A46FB7A18467B8A0293019000922A
:101998002B462246434802F04BFBFB7904331B02DB
:1019A80002330121184600F0CBF8FB79184600F005
:1019B800F6F90346FB82FB8A002B68D0FB8AB3F555
:1019C800006F02D94FF40063FB82FA8AFB79396809
:1019D800184600F005FFF860FB68002B01DCFB6887
:1019E8005BE0FB68FB820023BB8219E0BB8A3A6894
:1019F800D118FA8ABB8AD31A9AB2FB79184600F032
:101A080007FEF860FB68002B05DAFB79184600F042
:101A1800DBFCFB6841E0FB689AB2BB8A1344BB82DB
:101A2800FA8ABB8A9A42E1D131E0FB79184600F084
:101A380081FD0346FB60FB68012B01D0FB682CE0AD
:101A4800FB791946184802F0F3FA25E0FB79BA88C1
:101A58001946164802F0ECFAFB79184600F01AFD10
:101A68000346FB60FB68012B13D0FB6815E0BA88BE
:101A7800F8790023012100F0A3FB0346FB60FB7902
:101A8800FA689A4207D0FB6807E000BF04E000BF8D
:101A980002E000BF00E000BF012318461837BD462A
:101AA800B0BD00BF30770008547700086877000899
:101AB80080B582B000AF1C4802F032FB1B4802F030
:101AC800B7FA00237B6006E07968194802F0B0FA9B
:101AD8007B6801337B607B680F2BF5DD154802F0CE
:101AE800A7FA00237B6014E07B6803F00F03002B48
:101AF80003D17968104802F09BFA7B68184600F019
:101B08004DF8034619460A4802F092FA7B680133F9
:101B18007B607B688F2BE7DD084802F001FB00BF84
:101B28000837BD4680BD00BF4478000870780008BB
:101B38007C78000884780008C0780008D07800080D
:101B480080B582B000AF78600B46FB70124B9B6883
:101B58009847114B1B6998470F4BDB69F020984752
:101B68000D4BDB697A68120AD2B2104698470A4BC5
:101B7800DB697A68D2B210469847074BDB69FA7876
:101B880010469847044B5B699847034BDB689847B6
:101B980000BF0837BD4680BD1800002080B584B05E
:101BA80000AF7860134B9B689847124B1B699847A6
:101BB800104BDB690F2098470E4BDB697A68120AD5
:101BC800D2B2104698470B4BDB697A68D2B21046FE
:101BD8009847084B9B6998470346FB73054B5B691D
:101BE8009847044BDB689847FB7B18461037BD467F
:101BF80080BD00BF1800002080B586B000AFF86037
:101C0800B9601346FB800023FB821E4B9B689847F4
:101C18001C4B1B6998471B4BDB69F0209847194BF5
:101C2800DB69FA6891B2FA8A0A4492B2120A92B24D
:101C3800D2B210469847134BDB69FA68D1B2FA8AD8
:101C4800D2B20A44D2B2104698470023FB820AE077
:101C58000C4BDB69FA8AB9680A441278104698472F
:101C6800FB8A0133FB82FA8AFB889A42F0D3054B40
:101C78005B699847034BDB68984700BF1837BD4638
:101C880080BD00BF1800002090B587B000AFF86095
:101C9800B9601346FB800023FB821E4B9B68984764
:101CA8001C4B1B6998471B4BDB690F209847194B46
:101CB800DB69FA6891B2FA8A0A4492B2120A92B2BD
:101CC800D2B210469847134BDB69FA68D1B2FA8A48
:101CD800D2B20A44D2B2104698470023FB820AE0E7
:101CE800FB8ABA68D4180B4B9B6998470346237044
:101CF800FB8A0133FB82FA8AFB889A42F0D3054BB0
:101D08005B699847034BDB68984700BF1C37BD46A3
:101D180090BD00BF1800002090B585B000AF034605
:101D2800FB710023FB810023BB81FB7904331B0279
:101D380020331846FFF732FF0346BB81BB891B02DD
:101D48009CB2FB7904331B0221331846FFF726FFA8
:101D580003469BB22344BB81BB89002B16D0FB7979
:101D680004331B0220331846FFF718FF0346FB8194
:101D7800FB891B029CB2FB7904331B0221331846F2
:101D8800FFF70CFF03469BB22344FB81FA89BB890A
:101D98009A42CAD1FB8918461437BD4690BD90B502
:101DA80085B000AF0346FB710023FB810023BB8194
:101DB800FB7904331B0226331846FFF7EFFE034670
:101DC800BB81BB891B029CB2FB7904331B022733FE
:101DD8001846FFF7E3FE03469BB22344BB81BB8949
:101DE800002B16D0FB7904331B0226331846FFF765
:101DF800D5FE0346FB81FB891B029CB2FB790433A9
:101E08001B0227331846FFF7C9FE03469BB223443B
:101E1800FB81FA89BB899A42CAD1FB8918461437D3
:101E2800BD4690BD80B584B000AF0346FB714FF44A
:101E3800C043BB600023FB7313E097F90F300433F2
:101E48001B021E331846FFF7A9FE03469B021A46DB
:101E5800BB681344BB6097F90F30DBB20133DBB2C8
:101E6800FB7397F90F20FB799A42E6DBBB681846AB
:101E78001037BD4680BD80B584B000AF0346FB7106
:101E88004FF48043BB600023FB7313E097F90F30D6
:101E980004331B021F331846FFF780FE03469B02DC
:101EA8001A46BB681344BB6097F90F30DBB20133A5
:101EB800DBB2FB7397F90F20FB799A42E6DBBB682C
:101EC80018461037BD4680BD90B585B000AF0346B3
:101ED8003960FB711346BB80FB7904331B02243342
:101EE8001846FFF75BFE03469BB21B029CB2FB79C8
:101EF80004331B0225331846FFF750FE03469BB2F6
:101F08002344FB81FB7904331B021F331846FFF778
:101F180045FE03469BB29B029BB2013B9BB21AB2A1
:101F2800B7F90E3013401BB2BB81FB791846FFF797
:101F3800A2FF03469AB2BB8913447B81BA89BB8846
:101F4800D418FB7904331B021F331846FFF726FE0B
:101F580003469B029C4228DDFB7904331B021F3396
:101F68001846FFF71BFE03469BB29B029AB2BB8939
:101F7800D31A3B817B893A8939681846FFF73CFEBA
:101F88003B893A6813443B60BA883B89D31A3B8142
:101F9800FB791846FFF76FFF03467B817B893A89F7
:101FA80039681846FFF728FE05E07B89BA88396842
:101FB8001846FFF721FEFA89BB881344FB81FB7999
:101FC80004331B0224331A46FB891B0A9BB2DBB27B
:101FD80019461046FFF7B4FDFB7904331B0225337D
:101FE8001A46FB89DBB219461046FFF7A9FD00BF68
:101FF8001437BD4690BD90B585B000AF0346396033
:10200800FB711346BB80FB7904331B022833184647
:10201800FFF7C4FD03469BB21B029CB2FB79043355
:102028001B0229331846FFF7B9FD03469BB2234428
:10203800FB81FB7904331B021E331846FFF7AEFD04
:1020480003469BB29B029BB2013B9AB2FB891340A9
:10205800BB81FB791846FFF7E5FE03469AB2BB89B8
:1020680013447B81BA89BB88D418FB7904331B02DB
:102078001E331846FFF792FD03469B029C4228DD5B
:10208800FB7904331B021E331846FFF787FD03460E
:102098009BB29B029AB2BB89D31A3B817B893A894E
:1020A80039681846FFF7F0FD3B893A6813443B60EE
:1020B800BA883B89D31A3B81FB791846FFF7B2FEF1
:1020C80003467B817B893A8939681846FFF7DCFD2E
:1020D80005E07B89BA8839681846FFF7D5FDFA8983
:1020E800BB881344FB81FB7904331B0228331A464F
:1020F800FB891B0A9BB2DBB219461046FFF720FD8D
:10210800FB7904331B0229331A46FB89DBB21946D3
:102118001046FFF715FD00BF1437BD4690BD80B5CA
:1021280082B000AF03460A46FB711346BB80FB79B9
:1021380019463F20FFF704FDBB881B0A9BB2DBB2A0
:1021480019464020FFF7FCFCBB88DBB2194641204A
:10215800FFF7F6FC01214420FFF7F2FC00BF442002
:10216800FFF71CFD0346002BF9D100BF0837BD4619
:1021780080BD90B583B000AF0346FB71FB7919466B
:102188003F20FFF7DDFC02214420FFF7D9FC00BF08
:102198004420FFF703FD0346002BF9D14220FFF747
:1021A800FDFC03461B021CB24320FFF7F7FC034665
:1021B8001BB223431BB29BB218460C37BD4690BDD9
:1021C80090B585B000AF0446084611461A46234626
:1021D800FB710346BB710B46BB801346FB70FB7952
:1021E800042B02D94FF0FF33E0E0BB79013B042B0D
:1021F80019D801A252F823F0152200083522000848
:1022080035220008352200083522000807F10C03A2
:10221800042219460F20FFF737FDFB68002B05D174
:102228006FF00203C2E06FF00403BFE000BFFB7869
:1022380003F00403002B02D06FF00503B6E0FB782F
:10224800002B1CD0BB79012B02D0022B08D016E042
:10225800FB7803F02103002B0ED16FF00503A5E0F6
:10226800FB7803F02003002B08D097F90330002BEC
:1022780004DB6FF0050399E000BF00E000BFFB79C5
:10228800184600F0A1F8FB7904331B02184697F9A9
:10229800033023F00F035AB297F9063013435BB2A9
:1022A800DBB21946FFF74CFCBB88002B10D1414B21
:1022B8001B885A1C91B23F4A1180BB803D4B1B883A
:1022C8004FF6F072934203D13A4B4FF440421A80D2
:1022D800FB7904331B0204331A46BB881B0A9BB2E2
:1022E800DBB219461046FFF72BFCFB7904331B02BF
:1022F80005331A46BB88DBB219461046FFF720FCA7
:10230800FB7904331B02013301211846FFF718FC3F
:1023180000BFFB7904331B0201331846FFF73EFC6C
:102328000346002BF5D1FB79012202FA03F31BB215
:10233800DB431AB2204B1B881BB213401BB29AB264
:102348001D4B1A80FB7803F00102FB7902FA03F3B4
:102358001AB2194B1B881BB213431BB29AB2164B05
:102368001A80FB79012202FA03F31BB2DB431AB28B
:10237800124B1B881BB213401BB29AB20F4B1A8028
:10238800FB790F4A002122F81310FB790D4A00212E
:10239800D15400BFFB7904331B0203331846FFF7FF
:1023A800FDFB0346002BF5D097F907301846143784
:1023B800BD4690BD14000020F4060020F60600205B
:1023C800F80600200007002080B582B000AF034661
:1023D800FB71FB79042B02D94FF0FF334DE0FB79F9
:1023E80004331B02013310211846FFF7A9FB00BF75
:1023F800FB7904331B0201331846FFF7CFFB034672
:10240800002BF5D1FB7904331B020233FF21184658
:10241800FFF796FBFB79012202FA03F31BB2DB43B9
:102428001AB2184B1B881BB213401BB29AB2154B39
:102438001A80FB79012202FA03F31BB2DB431AB2BA
:10244800114B1B881BB213401BB29AB20E4B1A8059
:10245800FB790E4A002122F81310FB790C4A00215F
:10246800D15400BFFB7904331B0203331846FFF72E
:1024780095FB0346002BF5D1012318460837BD46C6
:1024880080BD00BFF4060020F6060020F8060020F4
:102498000007002080B582B000AF0346FB71FB79CE
:1024A800042B02D94FF0FF3340E0FB7904331B02C1
:1024B8001846FFF773FB034603F00F03012B02D006
:1024C8006FF0040332E0FB7904331B020333184630
:1024D800FFF764FB0346132B02D06FF0020325E0DD
:1024E800FB7904331B02013302211846FFF728FB4E
:1024F80000BFFB7904331B0201331846FFF74EFB7C
:102508000346002BF5D106E0FB791846FFF75CFF80
:102518006FF003030AE0FB7904331B020333184608
:10252800FFF73CFB0346142BEED10123184608376E
:10253800BD4680BD80B582B000AF0346FB71FB7914
:10254800042B02D94FF0FF3359E0FB7904331B0207
:102558001846FFF723FB034603F00F03012B02D0B5
:102568006FF004034BE0FB7904331B0201330821AD
:102578001846FFF7E5FA00BFFB7904331B02013365
:102588001846FFF70BFB0346002BF5D1FB79012218
:1025980002FA03F31BB2DB431AB21B4B1B881BB2B4
:1025A80013401BB29AB2184B1A80184B1B881A4654
:1025B800FB7942FA03F303F00103002B14D0002344
:1025C8001DE0FB7904331B0202331846FFF7E6FAD5
:1025D800034603F00803002B06D0FB791846FFF7E3
:1025E800F3FE6FF00C030AE0FB7904331B0203339C
:1025F8001846FFF7D3FA0346002BE2D10123184609
:102608000837BD4680BD00BFF6060020F40600204E
:1026180080B584B000AF03463960FB711346BB80B8
:102628000023FB730023BB81FB79042B02D94FF0F5
:10263800FF33CDE0FB7904331B021846FFF7AEFAEF
:10264800034603F00F03012B02D06FF00403BFE031
:10265800BB88002B02D16FF00D03B9E0FB7904337E
:102668001B0203331846FFF799FA0346FB73FB7BFB
:10267800172B05D0FB7B1C2B02D06FF00603A7E0BD
:10268800554B1B881A46FB7942FA03F303F0010302
:10269800002B33D0FB7904331B0202331846FFF7B3
:1026A8007DFA0346FB73FB7B03F01003002B17D066
:1026B800FB7904331B02023310211846FFF740FA56
:1026C800FB79012202FA03F31BB2DB431AB2424B35
:1026D8001B881BB213401BB29AB23F4B1A800DE005
:1026E800FB7B03F00803002B06D0FB791846FFF7A5
:1026F8006BFE6FF00C036BE0002369E0FB79043399
:102708001B021F331846FFF749FA03469BB29B0288
:10271800BB81BA88BB899A4201D9BB89BB80FB7946
:102728001846FFF7F9FA0346BB81FB7904331B020D
:1027380003331846FFF732FA0346FB73FB7B172B6C
:1027480009D0FB7B1C2B06D0FB791846FFF73CFE13
:102758006FF006033CE0214B1B881A46FB7942FACE
:1027680003F303F00103002B05D0BA88BB899A4212
:1027780001D900232CE0BA88BB899A4200D9CEE758
:1027880000BFBA88FB7939681846FFF79DFBFB79CB
:1027980004331B02013320211846FFF7D1F900BF8B
:1027A800FB7904331B0201331846FFF7F7F9034698
:1027B800002BF5D1FB79012202FA03F31AB2064B7A
:1027C8001B881BB213431BB29AB2034B1A80BB88F7
:1027D80018461037BD4680BDF6060020F4060020D6
:1027E80090B585B000AF03463960FB711346BB80D6
:1027F8000023FB730023BB81FB79042B02D94FF024
:10280800FF3391E0FB7904331B021846FFF7C6F942
:10281800034603F00F03012B02D06FF0040383E09B
:10282800BB88002B02D16FF00D037DE0FB790433E8
:102838001B021E331846FFF7B1F903469BB29B02F1
:10284800BB81BA89BB889A4201D2BB89BB80FB791C
:102858001846FFF7A4FA0346BB81FB7904331B0231
:1028680003331846FFF79AF90346FB73FB7B172BD4
:1028780024D0FB7B1C2B1AD1BB89002B31D1FB79CF
:102888001846FFF749FA03461C46FB7904331B0236
:102898001F331846FFF782F903469B029C420DD16D
:1028A800FB791846FFF790FD6FF006033CE0FB79D3
:1028B8001846FFF789FD6FF0060335E01C4B1B88AF
:1028C8001A46FB7942FA03F303F00103002B04D004
:1028D800BB89002B01D1002326E0BB89002B02D144
:1028E800B5E700BF00E000BFBA89BB889A4201D2B1
:1028F800BB89BB80BA88FB7939681846FFF77BFB30
:10290800FB7904331B02013340211846FFF718F9FD
:1029180000BFFB7904331B0201331846FFF73EF969
:102928000346002BF5D1BB8818461437BD4690BD29
:10293800F406002080B400AF00BFBD4680BC7047DD
:1029480080B400AF00BFBD4680BC704780B400AF04
:1029580000BFBD4680BC704780B400AF00BFBD4615
:1029680080BC704780B483B000AF78607B681B7808
:10297800DBB218460C37BD4680BC704780B483B0C4
:1029880000AF78600B46FB707B68FA781A7000BF5E
:102998000C37BD4680BC704780B400AF0023184692
:1029A800BD4680BC704780B483B000AF0346FB715E
:1029B80000BF0C37BD4680BC7047000080B483B0B0
:1029C80000AF786039607B68002B02D03B68002B31
:1029D80006D1094B094A1A61074B094A5A6105E0B1
:1029E800054A7B681361044A3B68536100BF0C3792
:1029F800BD4680BC704700BF18000020552900085C
:102A08006129000880B483B000AF7860396000BFE6
:102A18000E4B1B8803F40073002BF9D07B68002B46
:102A280002D03B68002B06D1084B094A9A61074B34
:102A3800084ADA6105E0054A7B689361034A3B6806
:102A4800D36100BF0C37BD4680BC7047180000201A
:102A5800A1290008AF29000880B586B000AF034659
:102A68003960FB710023FB750023FB6000233B6189
:102A7800FB790F2B00F29C8001A252F823F000BFD3
:102A8800C92A0008CF2A0008FB2A0008EF2A0008F4
:102A9800092B0008152B0008B92B0008B92B0008D2
:102AA800232B00085D2B0008632B00086B2B000804
:102AB800BF2B0008732B0008812B00089D2B0008F2
:102AC80000F082F878E03B68002B04D03B68FB609C
:102AD800FB6804333B61FB683A691146184600F00D
:102AE800B7F8034669E03B681B88184600F05CF9B4
:102AF80062E000F07CF903461A463B681A805BE006
:102B08003B681B88184600F098F955E000F0B5F9C5
:102B180003461A463B681A804EE02A4B9A783B686F
:102B28001A703B680133274AD2781A703B6802331F
:102B3800244A12791A703B680333224A52791A7070
:102B48003B6804331F4A92791A703B6805330022A8
:102B58001A7031E000F0D8F92EE0386800F0F3F987
:102B68002AE0386800F028FA26E03B681B78184607
:102B780000F058FA034620E000F0B8F90346FB7568
:102B8800FB7DFF2B02D14FF0FF3316E03B68FA7D47
:102B98001A7011E000F095F90346FB75FB7DFF2BD9
:102BA80002D14FF0FF3308E03B68FA7D1A7003E06A
:102BB8004FF0FF3301E000BF002318461837BD4629
:102BC80080BD00BF1800002080B586B000AF3B1D57
:102BD800062219460920FFF757F807F114030422C3
:102BE80019460120FFF750F807F11003042219468F
:102BF8000520FFF749F807F10C03042219460F20B6
:102C0800FFF742F880210020FEF79AFF0020FEF728
:102C1800C5FF3B1D062219460920FEF7EDFF07F107
:102C28001403042219460120FEF7E6FF07F11003FA
:102C3800042219460520FEF7DFFF07F10C030422E2
:102C480019460F20FEF7D8FF00BF1837BD4680BDD4
:102C580080B584B000AF7860396000237B73FFF7DC
:102C6800B3FF7B68002B4BD000237B730023FB73DF
:102C780015E097F90F307A6813441A787B7B134470
:102C8800DBB27B7397F90D30082B02DD4FF0FF3371
:102C980086E097F90F30DBB20133DBB2FB7397F9AB
:102CA8000F30032BE5DD0023FB7325E00023BB7306
:102CB80005E097F90E30DBB20133DBB2BB7397F94D
:102CC8000F307A6813441B781A4697F90E3042FA87
:102CD80003F3012BEDD197F90F3004331B021F3397
:102CE8001A46BB7B19461046FEF72AFF97F90F30A4
:102CF800DBB20133DBB2FB7397F90F30032BD5DD61
:102D08003B68002B4BD000237B730023FB7315E03B
:102D180097F90F303A6813441A787B7B1344DBB277
:102D28007B7397F90D30082B02DD4FF0FF3337E046
:102D380097F90F30DBB20133DBB2FB7397F90F3031
:102D4800032BE5DD0023FB7325E00023BB7305E0BF
:102D580097F90E30DBB20133DBB2BB7397F90F3052
:102D68003A6813441B781A4697F90E3042FA03F36F
:102D7800012BEDD197F90F3004331B021E331A468D
:102D8800BB7B19461046FEF7DBFE97F90F30DBB226
:102D98000133DBB2FB7397F90F30032BD5DD00232A
:102DA80018461037BD4680BD80B584B000AF0346D5
:102DB800FB80FB88FB73FB881B0A9BB2BB73FB7B06
:102DC80043F01003FB73BB7B03F00F03BB73FA7B69
:102DD800BB7B1343FB73FB7B23F01F03DBB219465A
:102DE8001520FEF7ADFE00BF1037BD4680BD80B58B
:102DF80082B000AF0023FB710023BB710023BB80AE
:102E08001520FEF7CBFE034623F01F03FB71FB7969
:102E180003F00F03BB71FB7923F01003FB71BB793F
:102E2800BB80BB881B029AB2FB799BB21344BB8060
:102E3800BB8818460837BD4680BD80B584B000AF52
:102E48000346FB80FB88FB73FB881B0A9BB2BB73A2
:102E5800FB7B23F01003FB73BB7B03F00F03BB73F7
:102E6800FA7BBB7B1343FB73FB7B19461620FEF7EB
:102E780067FE00BF1037BD4680BD80B582B000AF89
:102E88000023FB710023BB710023BB801620FEF7D3
:102E980085FE0346FB71FB7903F00F03BB71FB79D9
:102EA80023F01003FB71BB79BB80BB881B029AB26D
:102EB800FB799BB21344BB80BB8818460837BD46D4
:102EC80080BD80B582B000AF0023FB713C20FEF7C7
:102ED80065FE034603F00103002B01D00123FB71BB
:102EE80097F9073018460837BD4680BD80B483B0CF
:102EF80000AF0023FB71FF23FB7197F907301846D9
:102F08000C37BD4680BC704780B582B000AF00204A
:102F1800FFF72FF90346FB80FB886FEA43436FEA0C
:102F28005343FB80FB8819460020FFF7F8F800BFE1
:102F38000020FFF71EF903461BB2002BF8DB00BF89
:102F48000837BD4680BD80B584B000AF78600020EA
:102F5800FFF70FF90346FB817B685B78012B04D1EF
:102F6800FB8943F48053FB811DE0FB8923F48053E4
:102F7800FB817B68DB78012B04D1FB8943F48073E8
:102F8800FB8103E0FB8923F48073FB817B689B78DA
:102F9800012B04D1FB8943F40053FB8103E0FB8937
:102FA80023F40053FB81FB8919460020FFF7B7F88B
:102FB80000BF1037BD4680BD80B584B000AF7860D3
:102FC8000023FB810020FFF7D4F80346FB817B68D0
:102FD80001221A70FB8903F48053002B03D07B680D
:102FE80001225A701AE07B6800225A70FB8903F4A8
:102FF8008073002B03D07B680122DA7002E07B68C3
:103008000022DA70FB8903F40053002B03D07B689D
:1030180001229A7002E07B6800229A7000BF103784
:10302800BD4680BD80B584B000AF0346FB71002368
:10303800FB810020FFF79DF80346FB81FB79012BFC
:1030480004D1FB8943F40063FB8103E0FB8923F48B
:103058000063FB81FB8919460020FFF760F8002018
:10306800FFF787F80346FB81FB79012B06D1FB8923
:1030780003F40063002B08D0002308E0FB8903F465
:103088000063002B01D1002301E04FF0FF33184605
:103098001037BD4680BD000080B582B000AF7860B3
:1030A8007B68062219460920FEF7A6FD7B680E33C9
:1030B800042219460120FEF79FFD7B680A3304228B
:1030C80019460520FEF798FD7B6806330422194649
:1030D8000F20FEF791FD7B689A7C0B4B1A707B687A
:1030E800DA7C094B5A707B681A7D074B9A707B68AB
:1030F8005A7D054BDA707B689A7D044B1A7000BFC5
:103108000837BD4680BD00BF04070020080700201F
:1031180080B582B000AF78607B6806221946092026
:10312800FEF7B2FD7B680E33042219460120FEF734
:10313800ABFD7B680A33042219460520FEF7A4FD7F
:103148007B680633042219460F20FEF79DFD0C4BC1
:103158001A787B689A740A4B5A787B68DA74084B39
:103168009A787B681A75064BDA787B685A75054B2E
:103178001A787B689A7500BF0837BD4680BD00BFC6
:10318800040700200807002080B485B000AF7860ED
:103198000A4B1B68002B02D1084B094A1A60074BDF
:1031A8001B68FB60054B1A687B681344034A13606D
:1031B800FB6818461437BD4680BC70470C070020D2
:1031C8005828002080B483B000AF78604FF0FF33F8
:1031D80018460C37BD4680BC704780B483B000AF3A
:1031E800786039603B684FF400525A6000231846F3
:1031F8000C37BD4680BC704780B483B000AF7860A0
:10320800012318460C37BD4680BC704780B485B092
:1032180000AFF860B9607A60002318461437BD46DD
:1032280080BC704780B500AF014800F079FFFEE729
:10323800E478000880B500AF014800F071FFFEE7B0
:10324800F478000880B500AF014800F069FFFEE798
:103258000479000880B500AF014800F061FFFEE77F
:103268001479000880B500AF014800F059FFFEE767
:103278001479000880B584B000AF01210120FDF762
:10328800FBFF42F2CF033B8140F2E733BB800023D0
:103298007B810023FB8000233B733B1D19464FF0C5
:1032A8008040FEF79FF8012201214FF08040FEF791
:1032B80034F942F2CF014FF08040FEF751F9012175
:1032C8004FF08040FEF70AF91C233B7001237B7006
:1032D8000123BB700123FB703B461846FDF7C0FD78
:1032E80000BF1037BD4680BD80B500AF01214FF04B
:1032F8008040FEF743F9034B1B680133014A136012
:1033080000BF80BD1007002080B400AF024B1B68CF
:103318001846BD4680BC70471007002080B584B0B1
:1033280000AF01210420FDF789FF0323BB734FF48D
:103338000073BB811823FB7307F10C03194622485D
:10334800FDF7F0FD0423FB734FF48063BB8107F1A5
:103358000C0319461C48FDF7E5FD1823FB734FF4D1
:103368008073BB8107F10C0319461748FDF7DAFD96
:103378000121F820FDF762FF1823FB734FF4604327
:10338800BB8107F10C0319461048FDF7CBFD01215D
:103398002020FDF753FF1023FB738023BB8107F127
:1033A8000C0319460A48FDF7BDFD1023FB734FF4C3
:1033B8008073BB8107F10C0319460548FDF7B2FD80
:1033C80000BF1037BD4680BD00080140000C014019
:1033D8000014014080B586B000AF01214FF4804051
:1033E800FDF72CFF4FF4E133BB600023BB810023C2
:1033F800FB8100233B820023BB820C237B8207F1E5
:10340800080319461148FEF7C9F8012240F2255170
:103418000E48FEF79CF9002240F227710B48FEF790
:1034280096F901210948FEF773F925233B71012319
:103438007B710023BB710123FB713B1D1846FDF70F
:103448000FFD00BF1837BD4680BD00BF00380140E2
:1034580080B586B000AF01214FF48040FDF70CFF26
:103468000023BB8000233B8102237B810123BB8196
:103478004FF40073FB8108233B8200237B820723E0
:10348800BB824FF48273FB803B1D19460548FDF74C
:1034980011FF01210348FDF750FF00BF1837BD4653
:1034A80080BD00BF0038004080B584B000AF124A2C
:1034B8003B1D92E8030083E803004023FB813B1D8A
:1034C80019460120FFF7C8FA0346B3F1FF3F02D1BE
:1034D8000A4800F025FE07F10E0319460420FFF7FD
:1034E800BBFA0346B3F1FF3F02D1054800F018FECE
:1034F80000BF1037BD4680BD547900082479000804
:103508004079000880B500AF00BF02210C48FDF7E4
:103518004DFF0346002BF8D0FF210948FDF72CFF8B
:1035280000BF01210648FDF741FF0346002BF8D0F4
:103538000348FDF72FFF0346DBB2184680BD00BFE6
:103548000038004080B582B000AF0346FB7100BF71
:1035580002210D48FDF72AFF0346002BF8D0FB791E
:103568009BB219460848FDF707FF00BF012106482E
:10357800FDF71CFF0346002BF8D00348FDF70AFFB0
:1035880000BF0837BD4680BD0038004080B500AF99
:1035980080210248FDF790FD00BF80BD0014014066
:1035A80080B500AF80210248FDF778FD00BF80BDDF
:1035B8000014014080B500AF4FF480710248FDF758
:1035C8007BFD00BF80BD00BF0014014080B500AF87
:1035D8004FF480710248FDF761FD00BF80BD00BF58
:1035E8000014014080B584B000AFFFF797FEFFF7E5
:1035F800F1FEFFF73FFE154800F092FD144915480B
:10360800FFF700FA14491548FFF7D8F9FFF720FF2C
:10361800FFF7D0FF0A2000F029F8FFF7D7FF0A20AC
:1036280000F024F8FFF740FF0D48FFF735FD0D487F
:1036380000F076FDFEF73CFA00F02EF84CF250321E
:1036480009490020FEF716F9F8E700BF5C79000881
:103658004D3500080D350008A935000895350008D6
:10366800400000206C790008481F002080B584B015
:1036780000AF7860FFF748FE02467B681344FB60A2
:1036880000BFFFF741FE0246FB689A42F9D300BF2C
:103698001037BD4680BD0000B0B584B004AF3048D7
:1036A800FFF736FD2E4B1B7818462D4B5B781C46D2
:1036B8002B4B9B781D462A4BDB781A46284B1B79E7
:1036C8001946274B5B790293019100922B462246BB
:1036D8000146244800F0ACFC214B9B791946204B4D
:1036E800DB791A461E4B1B7A18461D4B5B7A0093F2
:1036F80003461D4800F09CFC194B9B7A1946184B51
:10370800DB7A1A46164B1B7B1846154B5B7B0093DE
:103718000346164800F08CFC114B9B7B1946104B56
:10372800DB7B1A460E4B1B7C18460D4B5B7C0093CB
:1037380003460F4800F07CFC094B9B7C1946084B5C
:10374800DB7C1A46064B1B7D1846054B5B7D0093B8
:103758000346084800F06CFC00BFBD46B0BD00BF82
:103768004000002098790008C8790008E47900082A
:10377800007A00081C7A000880B582B000AF0346C2
:10378800FB71184B5B680133164A926893FBF2F1A0
:1037980002FB01F29A1A134B1B689A4205D1124890
:1037A80000F046FC4FF0FF3317E00E4BDB680D4A84
:1037B80052681344FA791A700A4B5B680133094A54
:1037C8005360084B5B68074A926893FBF2F102FB6F
:1037D80001F29B1A034A5360012318460837BD4675
:1037E80080BD00BF58000020387A000880B582B03C
:1037F80000AF7860144B1A68134B5B689A4205D186
:10380800124800F015FC4FF0FF3318E00E4BDB6850
:103818000D4A126813441A787B681A700A4B1B68A1
:103828000133094A1360084B1B68074A926893FBE7
:10383800F2F102FB01F29B1A034A136001231846B6
:103848000837BD4680BD00BF580000204C7A0008EC
:1038580080B400AF064B1A68054B5B689A4201D1E9
:10386800012300E000231846BD4680BC704700BF16
:103878005800002080B500AF0A4B1B889BB203F0AC
:103888002003002B07D00748FDF7B9FF0346DBB23A
:103898001846FFF771FF20210248FDF7DAFF00BF45
:1038A80080BD00BF0038014080B586B000AFF86029
:1038B800B9607A6000233B6100237B6119E000BF97
:1038C800FFF7C6FF0346012BFAD03B6901333B6182
:1038D800B868FFF78BFFBB681B780D2B03D1BB685B
:1038E8000A221A7009E0BB680133BB607B690133A7
:1038F8007B617A697B689A42E1DB3B691846183735
:10390800BD4680BD80B586B000AFF860B9607A600A
:1039180000237B6124E0BB681B789BB219461548DD
:10392800FDF75CFFBB680133BB6000BF8021114815
:10393800FDF774FF0346002BF8D080210D48FDF7F2
:1039480088FF00BF40210B48FDF768FF0346002BA6
:10395800F8D040210748FDF77CFF7B6901337B6184
:103968007A697B689A42D6DB7B6818461837BD4669
:1039780080BD00BF00380140DFF834D0002103E0EB
:103988000C4B5B58435004310B480C4B42189A427D
:10399800F6D30B4A02E0002342F8043B094B9A4253
:1039A800F9D300F013F800F0CBF8FFF71BFE7047CF
:1039B80000C00020447D000800000020D806002038
:1039C800D806002058280020FEE7000080B500AF88
:1039D800154A154B1B6843F0010313601249124B3B
:1039E8005A68124B13404B600F4A0F4B1B6823F069
:1039F800847323F4803313600B4A0B4B1B6823F446
:103A080080231360084A084B5B6823F4FE03536065
:103A1800054B4FF41F029A6000F00CF8044B4FF06E
:103A280000629A6000BF80BD001002400000FFF8ED
:103A380000ED00E080B500AF00F002F800BF80BDE7
:103A480080B483B000AF00237B6000233B603A4A18
:103A5800394B1B6843F480331360374B1B6803F4FE
:103A680000333B607B6801337B603B68002B03D1EC
:103A78007B68B3F5A06FF0D12F4B1B6803F40033BC
:103A8800002B02D001233B6001E000233B603B6830
:103A9800012B4BD1294A294B1B6843F010031360B3
:103AA800264A264B1B6823F003031360234A234B43
:103AB8001B6843F0020313601F4A1F4B5B68536087
:103AC8001D4A1D4B5B6853601B4A1B4B5B6843F4E4
:103AD80080635360184A184B5B6823F47C13536067
:103AE800154A154B5B6843F4E8135360124A124BAE
:103AF8001B6843F08073136000BF0F4B1B6803F013
:103B08000073002BF9D00C4A0B4B5B6823F00303BE
:103B18005360094A084B5B6843F00203536000BFD7
:103B2800054B5B6803F00C03082BF9D100BF0C3779
:103B3800BD4680BC704700BF001002400020024014
:103B480070B500250C4E0D4CA41BA410A54209D13C
:103B580003F0DCFD00250A4E0A4CA41BA410A54264
:103B680005D170BD56F8253098470135EEE756F86F
:103B7800253098470135F2E73C7D00083C7D000878
:103B88003C7D0008407D0008044B054A1B681B6A01
:103B9800002B08BF134693F828017047E40500205E
:103BA80068000020024B0146186800F003B800BF07
:103BB800E40500202DE9F74F01F10B04162C81468E
:103BC80007D934F0070405D50C23C9F800300026BE
:103BD80031E110248C42F7D3484600F01DFAB4F5C1
:103BE800FC7F9B4D36D204F108022A445668A2F1A4
:103BF80008018E424FEAD40302D1D668B24210D0EF
:103C08007368F268B16823F00303CA6033449160B3
:103C18005A6842F001025A60484600F003FA083632
:103C280009E102338B4A2E69114696426DD07068BD
:103C380020F00300071B0F2F47DD331944F0010460
:103C480074606B612B61DA609A6047F001025A6018
:103C58003750E1E7630A2AD0042B12D8A309383376
:103C68005A1C05EBC2025668A2F10800864206D02B
:103C7800726822F00302111B0F291CDD013B01337E
:103C8800D0E7142B01D85B33EAE7542B02D8230B77
:103C98006E33E5E7B3F5AA7F02D8E30B7733DFE7A6
:103CA80040F25452934204D8A30C7C33D8E73F2304
:103CB800D6E77E23D4E70029F16804DBB368D9602E
:103CC8008B60B318A4E70E46D0E7002F6A612A611B
:103CD80005DB3044436843F0010343609CE7B0F5DB
:103CE800007F44D20122C008871002FA07F76A68E9
:103CF80001303A436A6055F8307005EBC002083A63
:103D0800F260B76045F83060FE6001209A1000FA52
:103D180002F26868824200F29F80024206D123F0D4
:103D280003035200024203F10403FAD005EBC30C6B
:103D3800E0469E46D8F80C60464553D10EF1010E78
:103D48001EF0030F08F10808F4D1980779D16B68C1
:103D580023EA02036B606868520082427CD8002A1A
:103D68007AD073460242E1D104335200FAE7420A9C
:103D7800042A15D882093832571C55F8377005EBD4
:103D8800C20EBE4526D10120921000FA02F26868E0
:103D980010436860C6F80CE0B760CEF80860B3E777
:103DA800142A01D85B32E7E7542A02D8020B6E3294
:103DB800E2E7B2F5AA7F02D8C20B7732DCE740F21D
:103DC8005457BA429ABF820C7C327E22D4E7BF682D
:103DD800BE4504D07A6822F003029042F7D3D7F8A0
:103DE8000CE0D7E77068F76820F00300A0EB040A3E
:103DF800BAF10F0F10DDB268331944F00104746092
:103E0800D760BA604AF001026B612B61D960996092
:103E18005A6046F800A0FFE6BAF1000F0FDB304405
:103E2800436843F00103436056F8083F4846DF60A3
:103E3800BB6000F0F7F8304603B0BDE8F08F3E46AF
:103E48007AE75CF80809013B84453FF47EAF82E7D6
:103E5800D4010020DC010020D5F808B0DBF80460AC
:103E680026F00306B44203D8331B0F2B00F39580CA
:103E78004F4A0BEB060317684E4A10371168274460
:103E8800013105D04C4901390F44013149420F40F5
:103E9800394648460192009300F04AF9B0F1FF3FD5
:103EA800804655D0009B019A834201D9AB454FD13A
:103EB800424843450168824607EB010EC0F800E01E
:103EC8003F4913D10B4211D1AB683E4446F001067D
:103ED8005E603C4ADAF8003011688B4288BF136094
:103EE800394A11688B4288BF136031E0106801308D
:103EF8001BBFA8EB03037344C2F80080CAF8003064
:103F080018F007001CBFC0F1080080442A4B474442
:103F180018440F40C71B3946484600F009F9431CAE
:103F280004BF40460027DAF80030A0EB08003B4405
:103F3800074447F00107AB45C5F80880CAF80030C8
:103F4800C8F80470C5D00F2E10D80123C8F8043063
:103F5800AB685A6822F003029442A2EB040301D82A
:103F68000F2B1ADC484600F05DF830E60522DBF836
:103F780004300C3E26F0070603F001033343CBF868
:103F880004300F2E0BEB06035A609A60A1D90BF18F
:103F98000801484602F02EFA9BE7AE6844F0010299
:103FA80043F0010334447260AC60636034E600BFE0
:103FB80044070020DC0500208000000014070020D2
:103FC8007F0000003C0700204007002082B001B9B4
:103FD80001A942B14BB113780B601278101C18BFBD
:103FE800012002B070471046FBE76FF00100F8E7C8
:103FF80010B5431E0A44914200D110BD11F8014B7F
:1040080003F8014FF7E703460244934200D1704793
:1040180003F8011BF9E70000014802F023BC00BFC8
:104028004C280020014802F01EBC00BF4C2800208C
:104038000FB40A4B13B51C6824B1A36913B9204601
:1040480002F000F905AB049AA1682046019300F03C
:104058007FF802B0BDE8104004B07047E4050020C6
:1040680030B5054689B008460C46FCF7D9F8284B08
:104078000590069301231844079304AB0193022388
:1040880004940390029325B1AB6913B9284602F052
:10409800D9F8AB69AC6813B9284602F0D3F81D4BC0
:1040A8009C422AD16C68636EDB0705D4A389980506
:1040B80002D4A06D02F0D6FBB4F90C30990406D4F2
:1040C80043F40053A381636E23F4005363662846C8
:1040D80001AA214602F04AFA636E002814BF4FF085
:1040E800FF350A25DA0705D4A3899B0502D4A06DFC
:1040F80002F0B9FB284609B030BD074B9C4201D1FC
:10410800AC68D0E7054B9C4208BFEC68CBE700BF22
:104118006A7A0008F07B0008107C0008D07B000851
:10412800024B01461868FFF79BBF00BFE40500205B
:1041380038B50023054C054608462360FFF724F8E8
:10414800431C02D1236803B12B6038BD54280020DA
:104158002DE9F04FBFB00D4616461C461F46814656
:1041680002F070FB036818461193FCF759F80B909E
:10417800B9F1000F05D0D9F8183013B9484602F044
:1041880061F88F4B9D422CD1D9F804506B6ED8073B
:1041980005D4AB89990502D4A86D02F063FBB5F983
:1041A8000C309A0406D443F40053AB816B6E23F4AD
:1041B80000536B66AB891B0701D52B69EBB9294600
:1041C800484601F049F8C0B16B6ED80705D4AB89F1
:1041D800990502D4A86D02F046FB4FF0FF330C930B
:1041E80023E0784B9D4202D1D9F80850CEE7764BB0
:1041F8009D4208BFD9F80C50C8E7AB8903F01A02F2
:104208000A2A16D1B5F90E20002A12DB6A6ED207E7
:1042180004D49F0502D4A86D02F025FB234632463C
:104228002946484600F0CAFF0C900C983FB0BDE8FC
:10423800F08F00232EAC21942393229309960793A1
:104248000E930F93159314930C9312931393099E43
:10425800334613F8012B12B1252A40F08480099BBC
:10426800B6EB03080DD084E80801239B434423934D
:10427800229B0133072B229377DC08340C9B4344A1
:104288000C933378002B00F03F8700234FF0FF3B5F
:104298001A469A460A2001368DF867300D93711C2C
:1042A80009913178069106992039582900F2248419
:1042B800DFE811F0AE0022042204B3002204220435
:1042C8002204220422042204B60065002204BE004F
:1042D800C1002204DE00E100E100E100E100E100AC
:1042E800E100E100E100E1002204220422042204AA
:1042F80022042204220422042204220415012B0190
:1043080022042B012204220422042204F4002204A1
:104318002204490322042204220422042204B003B2
:10432800220422048C0022042204220422042204EF
:104338002204220422042204220407016B002B0118
:104348002B012B01F7006B0022042204FA0022043F
:1043580029034B037F030101220490032204B203C3
:1043680022042204CC031E4672E721AA29464846A5
:1043780002F0A5FF002840F0A3862EAC7EE70123BB
:104388002B22099E8BE70F46FBE70BB18DF86720C0
:104398001AF0200F00F0A980073727F0070707F168
:1043A80008030893D7E90067002E77F1000305DAC0
:1043B8002D23764267EB47078DF867300123D3E258
:1043C800F07B0008107C0008D07B00080BB18DF84A
:1043D8006720A24B1AF0200F159300F03C83073793
:1043E80027F0070707F108030893D7E900671AF0D1
:1043F800010F0BD056EA070308D030238DF8683038
:104408009DF818304AF0020A8DF869300223A8E2B4
:10441800002AB6D101232022B3E74AF0010AB0E707
:104428003E68391D002E0D96ADDA0F4676420D9680
:104438004AF0040AA5E709994E1C09782A29069129
:1044480010D04FF0000B09960699303909293FF62C
:104458002AAF00FB0B1B09990E4616F8011B0691A3
:104468000996F1E73968099641EAE17B043788E75C
:104478004AF0800A85E700210D9106990D9E303992
:1044880000FB06110D9109990E4616F8011B0691BD
:104498000699099630390929EFD904E74AF0080A3C
:1044A8006FE74AF0400A6CE7099909786C2905D149
:1044B8000999013109914AF0200A62E74AF0100A85
:1044C8005FE700263B1D08933B688DF867608DF811
:1044D80090304FF0010B0A960DF1900820E10BB1D6
:1044E8008DF867204AF0100A52E71AF0100F07F10A
:1044F800040303D03E680893F71755E73E681AF09F
:10450800400F089318BF36B2F6E70BB18DF8672055
:10451800073727F0070707F1080308933B684FF0B0
:10452800FF320E937B680E9F0F930F9B384623F044
:10453800004631464A4BFCF7CDFA002840F0F18599
:104548004FF0FF32464B38463146FCF7A5FA0028B3
:1045580040F0E785129A139B0E980F99FCF792FA90
:1045680010B12D238DF867303E4B3F4A06994FF026
:10457800030B4729CCBF9046984600262AF0800AAC
:104588000A96CDE0BBF1FF3F26D0069B23F020031F
:10459800472B04D1BBF1000F08BF4FF0010B4AF4C1
:1045A800807317930F9B1F1E0E9BA8BF10970A932B
:1045B800BDBF3B4603F1004310930023B8BF2D2332
:1045C8001693069B23F02007462F08D0452F43D18A
:1045D8000BF10106022304E04FF0060BDFE75E460D
:1045E80003231FAA04921CAA03921BAA02928DE815
:1045F80048000A9A109B484600F02AFF472F804639
:1046080003D11AF0010F00F0998508EB0603462F35
:10461800079311D198F80030302B09D1129A139BC7
:104628000A981099FCF724FA10B9C6F101061B96EE
:10463800079A1B9B1A440792129A139B0A9810997F
:10464800FCF716FA90B930221F9B079999420FD9A7
:10465800591C1F911A70F7E75E46BBE77C7A000881
:10466800FFFFEF7F6C7A0008707A0008079B1F93A2
:104678001F9B472FA3EB0803079340F0FD801B9B6C
:10468800DE1C02DB9B4580F22681069B023B0693DB
:104698001B9A9DF81810531E002BA8BF2B221B93A2
:1046A800BCBFC2F101032D22092B8DF874108DF8BF
:1046B800752040F3FF800A260DF1830293FBF6F084
:1046C80006FB1033092803F1300302F8013C02F11C
:1046D800FF31034600F3E780303301F8013C023A2A
:1046E8000DF176030DF1830082421946C0F0DD809A
:1046F800079A1DABCB1A012A149303EB020B03DCB8
:104708001AF001030A9303D00B9B9B4400230A93DE
:10471800169B13B12D238DF867300026DDF85CA0B9
:104728005E453346B8BF5B4610939DF8673013B1BA
:10473800109B013310931AF0020316931EBF109BAF
:10474800023310931AF08403179314D10D9B109A17
:104758009F1A002F0FDDAC4B102F236000F3DE8172
:10476800239B67601F44229B23970133072B2293C7
:1047780000F3EB8108349DF8673073B10DF16703DE
:10478800236001236360239B01332393229B01331E
:10479800072B229300F3E3810834169B6BB11AAB05
:1047A800236002236360239B02332393229B0133FC
:1047B800072B229300F3DD810834179B802B14D13B
:1047C8000D9B109A9F1A002F0FDD904B102F23601E
:1047D80000F3D981239B67601F44229B23970133F1
:1047E800072B229300F3E6810834A6EB0B06002E74
:1047F8000FDD864F102E276000F3E681229B239859
:1048080001336660072B06442396229300F3F38155
:1048180008341AF4807F40F0F881239B84E800096B
:104828005B442393229B0133072B229340F3288474
:1048380021AA2946484602F042FD002840F040845B
:104848002EAC1AF0040F40F01E840C9B0D9A1099A0
:104858008A42ACBF9B185B180C93239B3BB121AADF
:104868002946484602F02BFD002840F02984002301
:10487800089F22932EACEAE4069B652B7FF708AFCE
:10488800069B662B27D11B9B002B1BDDBBF1000F62
:1048980002D11AF0010F02D00B9A13445B441B9A01
:1048A8009B460A9234E70A4608E712F8011B03F808
:1048B800011B19E7302213448DF876208DF87730E4
:1048C8001EA915E7BBF1000F02D11AF0010F16D08F
:1048D8000B9B0133E2E71B9A079B9A4207DB1AF00E
:1048E800010F0ED00B9B134467220692D7E7079B54
:1048F8000B99002A0B44F7DCC2F10102F3E701230C
:10490800CDE71346F0E70BB18DF867201AF0200FBA
:1049180007F1040308D00C993A68CF1708463946BE
:10492800C2E900011F4692E41AF0100F03D03A685A
:104938000C991160F6E71AF0400FF8D03A68BDF804
:1049480030101180EEE74AF0100A1AF0200322D046
:10495800073727F0070707F108030893D7E9006727
:10496800002300228DF86720BBF1FF3F00F0EB83A6
:104978002AF080020A9256EA070240F0EA83BBF165
:10498800000F00F0AC80012B78D0022B00F0938050
:1049980000260027E3E33A1D1AF01001089202D01E
:1049A8003E680027DDE71AF04003F9D03E8800276B
:1049B800D6E73B1D0893302378228DF86830144BD6
:1049C8003E68159300274AF0020A8DF869200223F1
:1049D8000692C6E700263B1DBBF1FF3F0893D7F8B8
:1049E80000808DF867600AD05A463146404601F08B
:1049F800A7FF002800F09080A0EB080BC0E5404618
:104A0800FBF70EFC8346BBE5A07A0008B07A0008E5
:104A18008D7A00084AF0100A1AF0200F09D00737DB
:104A280027F0070707F108030893D7E90067012370
:104A380097E73B1D1AF0100F089301D03E6803E07A
:104A48001AF0400FFAD03E880027F0E70BB18DF836
:104A58006720A34BBEE43B1D1AF0100F089301D04A
:104A68003E6803E01AF0400FFAD03E880027BEE403
:104A7800434675E3002F08BF0A2E05D230360DF1E4
:104A8800F80808F8416D86E30DF1B8083046394654
:104A98000A220023FCF75CF8303208F8012D0023C5
:104AA800304639460A22FCF753F806460F4656EABE
:104AB8000703EBD16FE3002600270DF1B808159A1C
:104AC80006F00F03D35C3A0908F8013D330943EABD
:104AD80007731E46174656EA0703F0D15BE343B94E
:104AE8001AF0010F05D030230DF1F80808F8413D00
:104AF80051E30DF1B8084EE30BB18DF86720069B22
:104B0800002B00F0018300269DF818308DF86760AF
:104B18008DF890300897DCE4064631E51023636091
:104B2800239B10332393229B0133072B229302DC10
:104B38000834103F0FE621AA2946484602F0BFFB79
:104B4800002840F0BD822EACF3E721AA294648464A
:104B580002F0B5FB002840F0B3822EAC0BE621AA88
:104B68002946484602F0ABFB002840F0A9822EAC4B
:104B780013E621AA2946484602F0A1FB002840F086
:104B88009F822EAC19E610236360239B1033239376
:104B9800229B0133072B229302DC0834103F14E6D2
:104BA80021AA2946484602F08AFB002840F088825C
:104BB8002EACF3E721AA2946484602F080FB0028DC
:104BC80040F07E822EAC10E610236360239B1033E6
:104BD8002393229B0133072B229302DC0834103ED7
:104BE80008E621AA2946484602F069FB002840F059
:104BF80067822EACF3E721AA2946484602F05FFBFC
:104C0800002840F05D822EAC03E6069B652B40F33E
:104C1800B181129A139B0E980F99FBF729FF002870
:104C280064D0304B236001236360239B01332393BB
:104C3800229B0133072B229326DC08341B9B079AFF
:104C4800934203DB1AF0010F3FF4FBAD119B0B9A63
:104C580023600B9B6360239B13442393229B0133A4
:104C6800072B22931ADC0834079B5E1E002E7FF761
:104C7800E8AD4FF010081C4F102E276018DC666056
:104C8800239B1E442396CDE521AA2946484602F0D7
:104C980016FB002840F014822EACCFE721AA294643
:104CA800484602F00CFB002840F00A822EACDBE7F5
:104CB800239BC4F8048010332393229B0133072BD2
:104CC800229302DC0834103ED6E721AA294648463A
:104CD80002F0F5FA002840F0F3812EACF3E700BFAC
:104CE8008D7A00089E7A0008B07A00081B9B002B7A
:104CF8007BDC9E4B236001236360239B013323935A
:104D0800229B0133072B229345DC08341B9B2BB9CC
:104D1800079B1BB91AF0010F3FF493AD119B0B9A37
:104D280023600B9B6360239B13442393229B0133D3
:104D3800072B229339DC04F108031B9E002E19DA95
:104D480010248B4F7642102E1F6038DC239A5E6049
:104D58001644229A23960132072A03F10803229265
:104D680008DD21AA2946484602F0A9FA002840F0A1
:104D7800A7812EAB079A07995A60239AC3F8008037
:104D88000A442392229A0132072A22923FF750AD11
:104D980003F1080455E521AA2946484602F08FFA8E
:104DA800002840F08D812EACB0E721AA294648465C
:104DB80002F085FA002840F083812EABBDE7239AE4
:104DC8005C6010322392229A0132072A229202DC76
:104DD8000833103EB7E721AA2946484602F06FFA81
:104DE800002840F06D812EABF3E70A9B079A9342A7
:104DF800A8BF1346002B1E460BDD6360239BC4F837
:104E0800008033442393229B0133072B229363DCD6
:104E180008340A9B002EA8BF9B1B002B1E460FDDE3
:104E28004FF0100B524F102E27605FDC239B6660FB
:104E38001E44229B23960133072B22936DDC0834F2
:104E48001B9B079A934202DB1AF0010F0DD0119BAE
:104E58000B9A23600B9B6360239B13442393229B31
:104E68000133072B229362DC0834079B0A9A9E1AA7
:104E78001B9B079AD31A9E42A8BF1E46002E0CDD24
:104E88000A9B434484E84800239B33442393229B92
:104E98000133072B229354DC08341B9B079A002EFE
:104EA800A2EB0303B4BF1E469E1B002E7FF7C9ACBE
:104EB8004FF010082E4F102E27607FF7E0AE239B8F
:104EC800C4F8048010332393229B0133072B2293C9
:104ED80041DC0834103EEEE721AA2946484602F094
:104EE800EEF9002840F0EC802EAC92E7239BC4F842
:104EF80004B010332393229B0133072B229302DC47
:104F08000834103E8FE721AA2946484602F0D7F90F
:104F1800002840F0D5802EACF3E721AA2946484660
:104F280002F0CDF9002840F0CB802EAC88E721AA0A
:104F38002946484602F0C3F9002840F0C1802EAC4B
:104F480093E721AA2946484602F0B9F9002840F01B
:104F5800B7802EACA1E721AA2946484602F0AFF94E
:104F6800002840F0AD802EACB4E700BF9E7A000860
:104F7800B07A0008079B012B02DC1AF0010F76D0EB
:104F880001236360239BC4F8008001332393229B91
:104F98000133072B229336DC0834119B0B9A2360CC
:104FA8000B9B6360239B13442393229B0133072BA2
:104FB800229331DC0834139B129A0E980F99FBF751
:104FC80057FD079B5E1E00282FD108F1010384E8D6
:104FD8004800239B079A013B13442393229B0133E8
:104FE800072B22934ADD21AA2946484602F067F991
:104FF800002865D12EAC1DAB2360149B149A636006
:10500800239B13440DE421AA2946484602F057F988
:10501800002855D12EACC0E721AA2946484602F0FF
:105028004EF900284CD12EACC5E7002EE3DD4FF039
:1050380010085E4F102E276004DC239B66601E4418
:105048002396CBE7239BC4F8048010332393229B39
:105058000133072B229302DC0834103EEAE721AA29
:105068002946484602F02BF950BB2EACF5E7012340
:105078006360239BC4F800800133AEE70834BAE7C5
:105088000834FFF7DEBB0D9B109A9E1A002E7FF79F
:10509800DCAB1027464B102E236020DC239B666078
:1050A8001E44229B23960133072B22937FF7CDAB17
:1050B80021AA2946484602F002F900283FF4C5AB68
:1050C8006B6ED90705D4AB899A0502D4A86D01F097
:1050D800CAFBAB895B067FF5A8A8FFF77EB8239BC0
:1050E800676010332393229B0133072B229302DC42
:1050F8000834103ECEE721AA2946484602F0DFF8D8
:105108000028DDD12EACF4E7239B13B900232293AA
:10511800D6E721AA2946484602F0D1F80028F5D05A
:10512800CEE70E9A0F9B0E980F99FBF7D3FC002839
:105138003FF428AA1F4B204AFFF718BA1F9B1B1AD7
:105148000793FFF79CBA56EA0702CDF828A03FF468
:105158001AAC012B3FF48EAC022B3FF4AEAC2EAB55
:10516800F10841EA4771F80806F0070207460E46BB
:10517800303256EA070103F1FF3803F8012C7FF4B7
:1051880077AC0A99C80706D5302A04D0302208F827
:10519800012CA3F102082EAB5E46A3EB080B0023FB
:1051A800DDF828A00A93FFF7BBBA00BFB07A000861
:1051B800A07A0008747A0008787A0008F0B50C46DE
:1051C8001F46636EADF26C4D1993E3898989ADF87A
:1051D8000E30236A21F002010893A36AADF80C107F
:1051E8001AA9154606460A930091002304914FF424
:1051F800806116A802910591069301F031FB2A46B9
:105208003B4669463046FEF7A3FF051E07DB6946A5
:10521800304600F083FF002818BF4FF0FF35BDF877
:105228000C3016985B0642BFA38943F04003A38164
:1052380001F017FB28460DF26C4DF0BD49B1FF2A6D
:105248008BBF8A230A700360012088BF4FF0FF30AC
:105258007047084670470000324B70B51D68064617
:105268000C4625B1AB6913B9284600F0EBFF2E4B6D
:105278009C420FD16C68B4F90C309AB215072CD443
:10528800D00611D40922326043F04003A3814FF0C5
:10529800FF3070BD254B9C4201D1AC68EBE7244B35
:1052A8009C4208BFEC68E6E7510712D5616B41B133
:1052B80004F14403994202D0304601F09BF80023E0
:1052C8006363A38923F02403A38100236360236914
:1052D8002360A38943F00803A38123694BB9A389F9
:1052E80003F42073B3F5007F03D02146304601F064
:1052F800E7FAA28912F001030CD00023A3606369C6
:105308005B42A361236953B9B4F90C3013F08000F0
:10531800BAD170BD920758BF6369A360F2E7002055
:10532800F7E700BFE4050020F07B0008107C0008C8
:10533800D07B00082DE9F74F03690C6980469C4231
:1053480000F38280013C01F1140700F1140657F8BC
:10535800245056F824000135B0FBF5F54FEA840EC9
:1053680006EB0E0307EB0E0901938DB34FF0000A0D
:105378003846B446D34650F8042B93B205FB03A332
:10538800120C4FEA134A05FB02A29BB2ABEB0303D4
:10539800BCF800B04FEA124A5B441FFA82FBDCF803
:1053A80000208145CBEB124202EB23429BB243EA39
:1053B80002434FEA224B4CF8043BDCD256F80E303D
:1053C80033B9019B043B9E421A4631D3C8F81040BA
:1053D800404601F0E6FC002826DB30464FF0000E80
:1053E800013557F8041BD0F800C08BB2AEEB0303AD
:1053F8001FFA8CF213440A0CC2EB1C4202EB234244
:105408009BB243EA0243B9454FEA224E40F8043BB7
:10541800E7D256F8242006EB84032AB9043B9E42BF
:105428001A460BD3C8F81040284603B0BDE8F08FE1
:105438001268043B002AC9D1013CC4E71268043B46
:10544800002AEFD1013CEAE70020EEE70000000067
:105458002DE9F04F466A95B00446219DCDE9022317
:105468003EB91020FEF79EFB6062466086600660CB
:10547800C660636A196851B15A68012393404A604B
:105488008B60204601F0B8FA0022636A1A60039B19
:10549800002BB7BF012300232B60039BAEBF2B60FB
:1054A80023F000430393DDF80C90AB4B33EA090378
:1054B8001BD142F20F73209A1360029B23B9C9F3E0
:1054C8001300002800F08385229B53B9A34B21E0E9
:1054D800A34B06930833229A1360069815B0BDE8CB
:1054E800F08F9E4B06930333F5E7DDE90267002250
:1054F800002330463946FBF7BBFA804660B10123EA
:10550800209A1360229B002B00F05E85954B229A0F
:105518001360013B0693E0E712AB019313AB0093D2
:1055280032463B46204601F0B5FCC9F30A5582468F
:10553800002D7DD03046C7F3130343F07F5141F46B
:105548004011A5F2FF35CDF840800022864BFAF7CE
:1055580073FE7BA3D3E90023FBF722F87AA3D3E9F0
:105568000023FAF76BFE064628460F46FAF7B2FF05
:1055780077A3D3E90023FBF713F802460B4630461E
:105588003946FAF75BFE06460F46FBF7B9FA0022E2
:105598008346002330463946FBF774FA58B158461B
:1055A800FAF798FF02460B4630463946FBF760FA91
:1055B80008B90BF1FF3BBBF1160F58D8DDE9022300
:1055C8006A4901EBCB01D1E90001FBF779FA002820
:1055D8004FD000230BF1FF3B0D93129B5D1B6B1EFD
:1055E800079343BF0023C5F1010807934FF0000854
:1055F800BBF1000F3FDB079BCDF830B05B4407934E
:10560800002308931E9B092B00F2B480052BC4BF0E
:10561800043B1E931E9BC8BF0026A3F10203D8BFFC
:105628000126032B00F2B280DFE803F084862D7890
:10563800139B129D1D4405F23243202B11DD029A63
:1056480005F21240C3F1400322FA00F009FA03F30D
:105658001843FAF72FFF0123A1F1F871013D1093C8
:1056680073E7C3F12000029B03FA00F0F1E701237E
:10567800B2E70D90B1E7CBF1000308930023A8EB44
:105688000B080C93BEE7012309931F9B002B40F3E3
:1056980080809946049300220421656A6A6001F1BA
:1056A80014029A427AD96968204601F071F9636A4E
:1056B80028601B68B9F10E0F069300F2F080002EE7
:1056C80000F0ED80DDE90223BBF1000FCDE90E23E8
:1056D80079DD264A0BF00F034FEA2B1602EBC303C2
:1056E800F006D3E90023CDE90A235CD5DDE90E01F4
:1056F8001F4B0325D3E90823FBF77CF8CDE902010A
:1057080006F00F061A4F002E4FD1DDE90A23DDE916
:105718000201FBF76FF8CDE902016EE0012309935E
:105728001F9B5B4403F1010904934B46012BB8BF4F
:105738000123B0E70023A7E70023F0E7AFF30080D9
:1057480061436F63A787D23FB3C8608B288AC63F7F
:10575800FB799F501344D33F0000F07FCA7B0008B9
:10576800C17B00089F7A00080000F83F607C0008B1
:10577800387C00080126002309961E934FF0FF335A
:1057880000220493994612231F9284E70123099368
:10579800F4E70123049399461A46F5E76A68490035
:1057A80001326A607BE70225ACE7F10708D5DDE93D
:1057B8000A01D7E90023FAF7F3FECDE90A0101351A
:1057C800761008379FE700F0A580DDE90E01CBF1E0
:1057D8000006A24B06F00F0203EBC203D3E9002335
:1057E800FAF7DEFE02250023CDE902019C4F3611AF
:1057F800002E40F08480002B8DD10D9B002B00F0F3
:105808008B80DDE90223CDE90A23DDE90A010022C4
:10581800944BFBF737F900287ED0B9F1000F7BD005
:10582800049B002B37DDDDE90A0100228E4BFAF7D5
:10583800B7FECDE90201049E0BF1FF37013528467A
:10584800FAF748FEDDE90223FAF7AAFE874B0022A1
:10585800FAF7F4FCCDE90A010B9BA3F150750B95FF
:10586800002E5CD1DDE902010022814BFAF7E4FC4D
:105878000A9A2B46CDE90201FBF722F9002840F0ED
:10588800F782DDE902010A9A05F10043FBF7FAF80D
:10589800002840F0EB82DDE90E23CDE90223139BBB
:1058A800002BC0F25081BBF10E0F00F34C816B4B03
:1058B80003EBCB03D3E90023CDE904231F9B002B83
:1058C80080F2DA80B9F1000F00F3D68040F0CD8283
:1058D800DDE904010022664BFAF762FEDDE90223E6
:1058E800FBF7E4F84E464F46002840F0A482069B9A
:1058F800069A5D1C31230BF1010B13709FE2F2072E
:1059080005D5D7E90023FAF74BFE012301357610B8
:1059180008376DE7022570E75F464E468FE7069A1F
:105928004E4B32441192099A711E002A48D003EB5B
:10593800C103D3E9002300204E49FAF75BFFDDE9F4
:105948000A23FAF779FCCDE90A01069DDDE902018F
:10595800FBF7D6F80646FAF7BDFD02460B46DDE929
:105968000201FAF769FCDDE90A23303605F8016B14
:10597800CDE90201FBF786F8002864D1DDE90223AE
:1059880000203849FAF758FCDDE90A23FBF77AF8D2
:10599800002840F0B980119B9D423FF47CAFDDE9BF
:1059A8000A010022304BFAF7FBFD0022CDE90A017B
:1059B800DDE902012C4BFAF7F3FDCDE90201C5E759
:1059C80003EBC101D1E90001DDE90A23FAF7E8FD9B
:1059D800CDE90A01069DDDE90201FBF791F80646CB
:1059E800FAF778FD02460B46DDE90201FAF724FCD6
:1059F8003036119B05F8016BAB42CDE902014FF03F
:105A0800000224D11B4BDDE90A01FAF717FC024614
:105A18000B46DDE90201FBF753F8002874D1DDE9F4
:105A28000A2300201349FAF707FC02460B46DDE972
:105A38000201FBF727F800283FF42DAF15F8013CC9
:105A48006A1E302B01D0BB464DE01546F6E7064BE3
:105A5800FAF7A6FDCDE90201BDE700BF607C0008AA
:105A6800387C00080000F03F0000244000001C4083
:105A7800000014400000E03F069DDDE90267DDE913
:105A8800042330463946FAF7B5FEFBF739F8804665
:105A9800FAF720FDDDE90423FAF782FD02460B46FA
:105AA80030463946FAF7C8FB08F1300605F8016BAD
:105AB800069E0246AE1BB1450B4637D1FAF7BEFB30
:105AC80006460F4602460B46DDE90401FAF7DAFFFF
